{
    "_format": "hh-sol-artifact-1",
    "contractName": "BookIt",
    "sourceName": "contracts/BookIt.sol",
    "abi": [
        {
            "inputs": [],
            "stateMutability": "nonpayable",
            "type": "constructor"
        },
        {
            "inputs": [
                {
                    "internalType": "address",
                    "name": "sender",
                    "type": "address"
                },
                {
                    "internalType": "uint256",
                    "name": "tokenId",
                    "type": "uint256"
                },
                {
                    "internalType": "address",
                    "name": "owner",
                    "type": "address"
                }
            ],
            "name": "ERC721IncorrectOwner",
            "type": "error"
        },
        {
            "inputs": [
                {
                    "internalType": "address",
                    "name": "operator",
                    "type": "address"
                },
                {
                    "internalType": "uint256",
                    "name": "tokenId",
                    "type": "uint256"
                }
            ],
            "name": "ERC721InsufficientApproval",
            "type": "error"
        },
        {
            "inputs": [
                {
                    "internalType": "address",
                    "name": "approver",
                    "type": "address"
                }
            ],
            "name": "ERC721InvalidApprover",
            "type": "error"
        },
        {
            "inputs": [
                {
                    "internalType": "address",
                    "name": "operator",
                    "type": "address"
                }
            ],
            "name": "ERC721InvalidOperator",
            "type": "error"
        },
        {
            "inputs": [
                {
                    "internalType": "address",
                    "name": "owner",
                    "type": "address"
                }
            ],
            "name": "ERC721InvalidOwner",
            "type": "error"
        },
        {
            "inputs": [
                {
                    "internalType": "address",
                    "name": "receiver",
                    "type": "address"
                }
            ],
            "name": "ERC721InvalidReceiver",
            "type": "error"
        },
        {
            "inputs": [
                {
                    "internalType": "address",
                    "name": "sender",
                    "type": "address"
                }
            ],
            "name": "ERC721InvalidSender",
            "type": "error"
        },
        {
            "inputs": [
                {
                    "internalType": "uint256",
                    "name": "tokenId",
                    "type": "uint256"
                }
            ],
            "name": "ERC721NonexistentToken",
            "type": "error"
        },
        {
            "inputs": [
                {
                    "internalType": "address",
                    "name": "owner",
                    "type": "address"
                }
            ],
            "name": "OwnableInvalidOwner",
            "type": "error"
        },
        {
            "inputs": [
                {
                    "internalType": "address",
                    "name": "account",
                    "type": "address"
                }
            ],
            "name": "OwnableUnauthorizedAccount",
            "type": "error"
        },
        {
            "anonymous": false,
            "inputs": [
                {
                    "indexed": true,
                    "internalType": "address",
                    "name": "owner",
                    "type": "address"
                },
                {
                    "indexed": true,
                    "internalType": "address",
                    "name": "approved",
                    "type": "address"
                },
                {
                    "indexed": true,
                    "internalType": "uint256",
                    "name": "tokenId",
                    "type": "uint256"
                }
            ],
            "name": "Approval",
            "type": "event"
        },
        {
            "anonymous": false,
            "inputs": [
                {
                    "indexed": true,
                    "internalType": "address",
                    "name": "owner",
                    "type": "address"
                },
                {
                    "indexed": true,
                    "internalType": "address",
                    "name": "operator",
                    "type": "address"
                },
                {
                    "indexed": false,
                    "internalType": "bool",
                    "name": "approved",
                    "type": "bool"
                }
            ],
            "name": "ApprovalForAll",
            "type": "event"
        },
        {
            "anonymous": false,
            "inputs": [
                {
                    "indexed": false,
                    "internalType": "uint256",
                    "name": "_fromTokenId",
                    "type": "uint256"
                },
                {
                    "indexed": false,
                    "internalType": "uint256",
                    "name": "_toTokenId",
                    "type": "uint256"
                }
            ],
            "name": "BatchMetadataUpdate",
            "type": "event"
        },
        {
            "anonymous": false,
            "inputs": [
                {
                    "indexed": false,
                    "internalType": "address",
                    "name": "from",
                    "type": "address"
                },
                {
                    "indexed": false,
                    "internalType": "uint256",
                    "name": "capacity",
                    "type": "uint256"
                },
                {
                    "indexed": false,
                    "internalType": "uint256",
                    "name": "price",
                    "type": "uint256"
                },
                {
                    "indexed": false,
                    "internalType": "string",
                    "name": "Date",
                    "type": "string"
                },
                {
                    "indexed": false,
                    "internalType": "string",
                    "name": "Venue",
                    "type": "string"
                }
            ],
            "name": "EventAdded",
            "type": "event"
        },
        {
            "anonymous": false,
            "inputs": [
                {
                    "indexed": false,
                    "internalType": "uint256",
                    "name": "_tokenId",
                    "type": "uint256"
                }
            ],
            "name": "MetadataUpdate",
            "type": "event"
        },
        {
            "anonymous": false,
            "inputs": [
                {
                    "indexed": false,
                    "internalType": "address",
                    "name": "to",
                    "type": "address"
                },
                {
                    "indexed": false,
                    "internalType": "uint256",
                    "name": "ticket_counts",
                    "type": "uint256"
                },
                {
                    "indexed": false,
                    "internalType": "uint256",
                    "name": "total_price",
                    "type": "uint256"
                }
            ],
            "name": "Mint",
            "type": "event"
        },
        {
            "anonymous": false,
            "inputs": [
                {
                    "indexed": true,
                    "internalType": "address",
                    "name": "previousOwner",
                    "type": "address"
                },
                {
                    "indexed": true,
                    "internalType": "address",
                    "name": "newOwner",
                    "type": "address"
                }
            ],
            "name": "OwnershipTransferred",
            "type": "event"
        },
        {
            "anonymous": false,
            "inputs": [
                {
                    "indexed": false,
                    "internalType": "address",
                    "name": "from",
                    "type": "address"
                },
                {
                    "indexed": false,
                    "internalType": "string",
                    "name": "data",
                    "type": "string"
                }
            ],
            "name": "Reviewed",
            "type": "event"
        },
        {
            "anonymous": false,
            "inputs": [
                {
                    "indexed": false,
                    "internalType": "address",
                    "name": "from",
                    "type": "address"
                },
                {
                    "indexed": false,
                    "internalType": "uint256",
                    "name": "amount",
                    "type": "uint256"
                }
            ],
            "name": "Stake",
            "type": "event"
        },
        {
            "anonymous": false,
            "inputs": [
                {
                    "indexed": true,
                    "internalType": "address",
                    "name": "from",
                    "type": "address"
                },
                {
                    "indexed": true,
                    "internalType": "address",
                    "name": "to",
                    "type": "address"
                },
                {
                    "indexed": true,
                    "internalType": "uint256",
                    "name": "tokenId",
                    "type": "uint256"
                }
            ],
            "name": "Transfer",
            "type": "event"
        },
        {
            "inputs": [
                {
                    "internalType": "address",
                    "name": "",
                    "type": "address"
                }
            ],
            "name": "Stakers",
            "outputs": [
                {
                    "internalType": "uint256",
                    "name": "",
                    "type": "uint256"
                }
            ],
            "stateMutability": "view",
            "type": "function"
        },
        {
            "inputs": [
                {
                    "internalType": "address",
                    "name": "to",
                    "type": "address"
                },
                {
                    "internalType": "string",
                    "name": "Name",
                    "type": "string"
                },
                {
                    "internalType": "string",
                    "name": "Description",
                    "type": "string"
                },
                {
                    "internalType": "string",
                    "name": "Date",
                    "type": "string"
                },
                {
                    "internalType": "string",
                    "name": "Time",
                    "type": "string"
                },
                {
                    "internalType": "string",
                    "name": "Venue",
                    "type": "string"
                },
                {
                    "internalType": "uint256",
                    "name": "capacity",
                    "type": "uint256"
                },
                {
                    "internalType": "uint256",
                    "name": "price",
                    "type": "uint256"
                },
                {
                    "internalType": "string",
                    "name": "uri",
                    "type": "string"
                }
            ],
            "name": "addEvent",
            "outputs": [],
            "stateMutability": "nonpayable",
            "type": "function"
        },
        {
            "inputs": [
                {
                    "internalType": "uint256",
                    "name": "",
                    "type": "uint256"
                },
                {
                    "internalType": "uint256",
                    "name": "",
                    "type": "uint256"
                }
            ],
            "name": "allReviewsofEvent",
            "outputs": [
                {
                    "internalType": "address",
                    "name": "reviewer",
                    "type": "address"
                },
                {
                    "internalType": "string",
                    "name": "comment",
                    "type": "string"
                }
            ],
            "stateMutability": "view",
            "type": "function"
        },
        {
            "inputs": [
                {
                    "internalType": "address",
                    "name": "to",
                    "type": "address"
                },
                {
                    "internalType": "uint256",
                    "name": "tokenId",
                    "type": "uint256"
                }
            ],
            "name": "approve",
            "outputs": [],
            "stateMutability": "nonpayable",
            "type": "function"
        },
        {
            "inputs": [
                {
                    "internalType": "address",
                    "name": "owner",
                    "type": "address"
                }
            ],
            "name": "balanceOf",
            "outputs": [
                {
                    "internalType": "uint256",
                    "name": "",
                    "type": "uint256"
                }
            ],
            "stateMutability": "view",
            "type": "function"
        },
        {
            "inputs": [
                {
                    "internalType": "uint256",
                    "name": "event_id",
                    "type": "uint256"
                },
                {
                    "internalType": "address",
                    "name": "to",
                    "type": "address"
                },
                {
                    "internalType": "uint256",
                    "name": "ticket_count",
                    "type": "uint256"
                }
            ],
            "name": "buyTickets",
            "outputs": [],
            "stateMutability": "payable",
            "type": "function"
        },
        {
            "inputs": [],
            "name": "eventId",
            "outputs": [
                {
                    "internalType": "uint256",
                    "name": "",
                    "type": "uint256"
                }
            ],
            "stateMutability": "view",
            "type": "function"
        },
        {
            "inputs": [
                {
                    "internalType": "address",
                    "name": "",
                    "type": "address"
                },
                {
                    "internalType": "uint256",
                    "name": "",
                    "type": "uint256"
                }
            ],
            "name": "eventsOfUser",
            "outputs": [
                {
                    "internalType": "uint256",
                    "name": "id",
                    "type": "uint256"
                },
                {
                    "internalType": "address",
                    "name": "owner",
                    "type": "address"
                },
                {
                    "internalType": "string",
                    "name": "Name",
                    "type": "string"
                },
                {
                    "internalType": "string",
                    "name": "Description",
                    "type": "string"
                },
                {
                    "internalType": "string",
                    "name": "Date",
                    "type": "string"
                },
                {
                    "internalType": "string",
                    "name": "Time",
                    "type": "string"
                },
                {
                    "internalType": "string",
                    "name": "Venue",
                    "type": "string"
                },
                {
                    "internalType": "uint256",
                    "name": "Capacity",
                    "type": "uint256"
                },
                {
                    "internalType": "uint256",
                    "name": "Price",
                    "type": "uint256"
                },
                {
                    "internalType": "string",
                    "name": "IPFS_Logo",
                    "type": "string"
                }
            ],
            "stateMutability": "view",
            "type": "function"
        },
        {
            "inputs": [],
            "name": "getAllEvents",
            "outputs": [
                {
                    "components": [
                        {
                            "internalType": "uint256",
                            "name": "id",
                            "type": "uint256"
                        },
                        {
                            "internalType": "address",
                            "name": "owner",
                            "type": "address"
                        },
                        {
                            "internalType": "string",
                            "name": "Name",
                            "type": "string"
                        },
                        {
                            "internalType": "string",
                            "name": "Description",
                            "type": "string"
                        },
                        {
                            "internalType": "string",
                            "name": "Date",
                            "type": "string"
                        },
                        {
                            "internalType": "string",
                            "name": "Time",
                            "type": "string"
                        },
                        {
                            "internalType": "string",
                            "name": "Venue",
                            "type": "string"
                        },
                        {
                            "internalType": "uint256",
                            "name": "Capacity",
                            "type": "uint256"
                        },
                        {
                            "internalType": "uint256",
                            "name": "Price",
                            "type": "uint256"
                        },
                        {
                            "internalType": "string",
                            "name": "IPFS_Logo",
                            "type": "string"
                        }
                    ],
                    "internalType": "struct BookIt.Event[]",
                    "name": "",
                    "type": "tuple[]"
                }
            ],
            "stateMutability": "view",
            "type": "function"
        },
        {
            "inputs": [
                {
                    "internalType": "uint256",
                    "name": "event_id",
                    "type": "uint256"
                }
            ],
            "name": "getAllReview",
            "outputs": [
                {
                    "components": [
                        {
                            "internalType": "address",
                            "name": "reviewer",
                            "type": "address"
                        },
                        {
                            "internalType": "string",
                            "name": "comment",
                            "type": "string"
                        }
                    ],
                    "internalType": "struct BookIt.Review[]",
                    "name": "",
                    "type": "tuple[]"
                }
            ],
            "stateMutability": "view",
            "type": "function"
        },
        {
            "inputs": [
                {
                    "internalType": "uint256",
                    "name": "tokenId",
                    "type": "uint256"
                }
            ],
            "name": "getApproved",
            "outputs": [
                {
                    "internalType": "address",
                    "name": "",
                    "type": "address"
                }
            ],
            "stateMutability": "view",
            "type": "function"
        },
        {
            "inputs": [
                {
                    "internalType": "uint256",
                    "name": "id",
                    "type": "uint256"
                }
            ],
            "name": "getEventById",
            "outputs": [
                {
                    "components": [
                        {
                            "internalType": "uint256",
                            "name": "id",
                            "type": "uint256"
                        },
                        {
                            "internalType": "address",
                            "name": "owner",
                            "type": "address"
                        },
                        {
                            "internalType": "string",
                            "name": "Name",
                            "type": "string"
                        },
                        {
                            "internalType": "string",
                            "name": "Description",
                            "type": "string"
                        },
                        {
                            "internalType": "string",
                            "name": "Date",
                            "type": "string"
                        },
                        {
                            "internalType": "string",
                            "name": "Time",
                            "type": "string"
                        },
                        {
                            "internalType": "string",
                            "name": "Venue",
                            "type": "string"
                        },
                        {
                            "internalType": "uint256",
                            "name": "Capacity",
                            "type": "uint256"
                        },
                        {
                            "internalType": "uint256",
                            "name": "Price",
                            "type": "uint256"
                        },
                        {
                            "internalType": "string",
                            "name": "IPFS_Logo",
                            "type": "string"
                        }
                    ],
                    "internalType": "struct BookIt.Event",
                    "name": "",
                    "type": "tuple"
                }
            ],
            "stateMutability": "view",
            "type": "function"
        },
        {
            "inputs": [
                {
                    "internalType": "uint256",
                    "name": "event_id",
                    "type": "uint256"
                },
                {
                    "internalType": "address",
                    "name": "from",
                    "type": "address"
                },
                {
                    "internalType": "string",
                    "name": "comment",
                    "type": "string"
                }
            ],
            "name": "giveReview",
            "outputs": [],
            "stateMutability": "nonpayable",
            "type": "function"
        },
        {
            "inputs": [
                {
                    "internalType": "address",
                    "name": "owner",
                    "type": "address"
                },
                {
                    "internalType": "address",
                    "name": "operator",
                    "type": "address"
                }
            ],
            "name": "isApprovedForAll",
            "outputs": [
                {
                    "internalType": "bool",
                    "name": "",
                    "type": "bool"
                }
            ],
            "stateMutability": "view",
            "type": "function"
        },
        {
            "inputs": [],
            "name": "name",
            "outputs": [
                {
                    "internalType": "string",
                    "name": "",
                    "type": "string"
                }
            ],
            "stateMutability": "view",
            "type": "function"
        },
        {
            "inputs": [],
            "name": "owner",
            "outputs": [
                {
                    "internalType": "address",
                    "name": "",
                    "type": "address"
                }
            ],
            "stateMutability": "view",
            "type": "function"
        },
        {
            "inputs": [
                {
                    "internalType": "uint256",
                    "name": "tokenId",
                    "type": "uint256"
                }
            ],
            "name": "ownerOf",
            "outputs": [
                {
                    "internalType": "address",
                    "name": "",
                    "type": "address"
                }
            ],
            "stateMutability": "view",
            "type": "function"
        },
        {
            "inputs": [],
            "name": "renounceOwnership",
            "outputs": [],
            "stateMutability": "nonpayable",
            "type": "function"
        },
        {
            "inputs": [
                {
                    "internalType": "address",
                    "name": "from",
                    "type": "address"
                },
                {
                    "internalType": "address",
                    "name": "to",
                    "type": "address"
                },
                {
                    "internalType": "uint256",
                    "name": "tokenId",
                    "type": "uint256"
                }
            ],
            "name": "safeTransferFrom",
            "outputs": [],
            "stateMutability": "nonpayable",
            "type": "function"
        },
        {
            "inputs": [
                {
                    "internalType": "address",
                    "name": "from",
                    "type": "address"
                },
                {
                    "internalType": "address",
                    "name": "to",
                    "type": "address"
                },
                {
                    "internalType": "uint256",
                    "name": "tokenId",
                    "type": "uint256"
                },
                {
                    "internalType": "bytes",
                    "name": "data",
                    "type": "bytes"
                }
            ],
            "name": "safeTransferFrom",
            "outputs": [],
            "stateMutability": "nonpayable",
            "type": "function"
        },
        {
            "inputs": [
                {
                    "internalType": "address",
                    "name": "operator",
                    "type": "address"
                },
                {
                    "internalType": "bool",
                    "name": "approved",
                    "type": "bool"
                }
            ],
            "name": "setApprovalForAll",
            "outputs": [],
            "stateMutability": "nonpayable",
            "type": "function"
        },
        {
            "inputs": [
                {
                    "internalType": "bytes4",
                    "name": "interfaceId",
                    "type": "bytes4"
                }
            ],
            "name": "supportsInterface",
            "outputs": [
                {
                    "internalType": "bool",
                    "name": "",
                    "type": "bool"
                }
            ],
            "stateMutability": "view",
            "type": "function"
        },
        {
            "inputs": [],
            "name": "symbol",
            "outputs": [
                {
                    "internalType": "string",
                    "name": "",
                    "type": "string"
                }
            ],
            "stateMutability": "view",
            "type": "function"
        },
        {
            "inputs": [],
            "name": "tokenId",
            "outputs": [
                {
                    "internalType": "uint256",
                    "name": "",
                    "type": "uint256"
                }
            ],
            "stateMutability": "view",
            "type": "function"
        },
        {
            "inputs": [
                {
                    "internalType": "uint256",
                    "name": "tokenId",
                    "type": "uint256"
                }
            ],
            "name": "tokenURI",
            "outputs": [
                {
                    "internalType": "string",
                    "name": "",
                    "type": "string"
                }
            ],
            "stateMutability": "view",
            "type": "function"
        },
        {
            "inputs": [
                {
                    "internalType": "address",
                    "name": "from",
                    "type": "address"
                },
                {
                    "internalType": "address",
                    "name": "to",
                    "type": "address"
                },
                {
                    "internalType": "uint256",
                    "name": "tokenId",
                    "type": "uint256"
                }
            ],
            "name": "transferFrom",
            "outputs": [],
            "stateMutability": "nonpayable",
            "type": "function"
        },
        {
            "inputs": [
                {
                    "internalType": "address",
                    "name": "newOwner",
                    "type": "address"
                }
            ],
            "name": "transferOwnership",
            "outputs": [],
            "stateMutability": "nonpayable",
            "type": "function"
        },
        {
            "stateMutability": "payable",
            "type": "receive"
        }
    ],
    "bytecode": "0x60806040526000600b5534801561001557600080fd5b50336040518060400160405280600681526020017f426f6f6b495400000000000000000000000000000000000000000000000000008152506040518060400160405280600381526020017f424b54000000000000000000000000000000000000000000000000000000000081525081600090816100929190610442565b5080600190816100a29190610442565b505050600073ffffffffffffffffffffffffffffffffffffffff168173ffffffffffffffffffffffffffffffffffffffff16036101175760006040517f1e4fbdf700000000000000000000000000000000000000000000000000000000815260040161010e9190610555565b60405180910390fd5b6101268161012c60201b60201c565b50610570565b6000600760009054906101000a900473ffffffffffffffffffffffffffffffffffffffff16905081600760006101000a81548173ffffffffffffffffffffffffffffffffffffffff021916908373ffffffffffffffffffffffffffffffffffffffff1602179055508173ffffffffffffffffffffffffffffffffffffffff168173ffffffffffffffffffffffffffffffffffffffff167f8be0079c531659141344cd1fd0a4f28419497f9722a3daafe3b4186f6b6457e060405160405180910390a35050565b600081519050919050565b7f4e487b7100000000000000000000000000000000000000000000000000000000600052604160045260246000fd5b7f4e487b7100000000000000000000000000000000000000000000000000000000600052602260045260246000fd5b6000600282049050600182168061027357607f821691505b6020821081036102865761028561022c565b5b50919050565b60008190508160005260206000209050919050565b60006020601f8301049050919050565b600082821b905092915050565b6000600883026102ee7fffffffffffffffffffffffffffffffffffffffffffffffffffffffffffffffff826102b1565b6102f886836102b1565b95508019841693508086168417925050509392505050565b6000819050919050565b6000819050919050565b600061033f61033a61033584610310565b61031a565b610310565b9050919050565b6000819050919050565b61035983610324565b61036d61036582610346565b8484546102be565b825550505050565b600090565b610382610375565b61038d818484610350565b505050565b5b818110156103b1576103a660008261037a565b600181019050610393565b5050565b601f8211156103f6576103c78161028c565b6103d0846102a1565b810160208510156103df578190505b6103f36103eb856102a1565b830182610392565b50505b505050565b600082821c905092915050565b6000610419600019846008026103fb565b1980831691505092915050565b60006104328383610408565b9150826002028217905092915050565b61044b826101f2565b67ffffffffffffffff811115610464576104636101fd565b5b61046e825461025b565b6104798282856103b5565b600060209050601f8311600181146104ac576000841561049a578287015190505b6104a48582610426565b86555061050c565b601f1984166104ba8661028c565b60005b828110156104e2578489015182556001820191506020850194506020810190506104bd565b868310156104ff57848901516104fb601f891682610408565b8355505b6001600288020188555050505b505050505050565b600073ffffffffffffffffffffffffffffffffffffffff82169050919050565b600061053f82610514565b9050919050565b61054f81610534565b82525050565b600060208201905061056a6000830184610546565b92915050565b6147368061057f6000396000f3fe6080604052600436106101a05760003560e01c8063715018a6116100ec578063c3ba60251161008a578063e985e9c511610064578063e985e9c514610666578063e9d96a0f146106a3578063ede85eb7146106e9578063f2fde38b1461072657610224565b8063c3ba6025146105d0578063c5e7bb331461060d578063c87b56dd1461062957610224565b8063a22cb465116100c6578063a22cb46514610516578063b88d4fde1461053f578063b98079bc14610568578063c27a500d146105a557610224565b8063715018a6146104a95780638da5cb5b146104c057806395d89b41146104eb57610224565b806317d70f7c1161015957806342842e0e1161013357806342842e0e146103dd5780636352211e146104065780636bc02bcb1461044357806370a082311461046c57610224565b806317d70f7c1461034b57806323b872dd146103765780632e9fe7fd1461039f57610224565b806301ba3bcc1461022957806301ffc9a71461025257806306fdde031461028f578063081812fc146102ba578063089cdd0c146102f7578063095ea7b31461032257610224565b366102245734600860003373ffffffffffffffffffffffffffffffffffffffff1673ffffffffffffffffffffffffffffffffffffffff168152602001908152602001600020819055507febedb8b3c678666e7f36970bc8f57abf6d8fa2e828c0da91ea5b75bf68ed101a333460405161021a929190613204565b60405180910390a1005b600080fd5b34801561023557600080fd5b50610250600480360381019061024b91906133df565b61074f565b005b34801561025e57600080fd5b50610279600480360381019061027491906135a9565b6109b1565b60405161028691906135f1565b60405180910390f35b34801561029b57600080fd5b506102a4610a12565b6040516102b1919061368b565b60405180910390f35b3480156102c657600080fd5b506102e160048036038101906102dc91906136ad565b610aa4565b6040516102ee91906136da565b60405180910390f35b34801561030357600080fd5b5061030c610ac0565b60405161031991906136f5565b60405180910390f35b34801561032e57600080fd5b5061034960048036038101906103449190613710565b610ac6565b005b34801561035757600080fd5b50610360610adc565b60405161036d91906136f5565b60405180910390f35b34801561038257600080fd5b5061039d60048036038101906103989190613750565b610ae2565b005b3480156103ab57600080fd5b506103c660048036038101906103c191906137a3565b610be4565b6040516103d49291906137e3565b60405180910390f35b3480156103e957600080fd5b5061040460048036038101906103ff9190613750565b610ccd565b005b34801561041257600080fd5b5061042d600480360381019061042891906136ad565b610ced565b60405161043a91906136da565b60405180910390f35b34801561044f57600080fd5b5061046a60048036038101906104659190613813565b610cff565b005b34801561047857600080fd5b50610493600480360381019061048e9190613882565b610e09565b6040516104a091906136f5565b60405180910390f35b3480156104b557600080fd5b506104be610ec3565b005b3480156104cc57600080fd5b506104d5610ed7565b6040516104e291906136da565b60405180910390f35b3480156104f757600080fd5b50610500610f01565b60405161050d919061368b565b60405180910390f35b34801561052257600080fd5b5061053d600480360381019061053891906138db565b610f93565b005b34801561054b57600080fd5b50610566600480360381019061056191906139bc565b610fa9565b005b34801561057457600080fd5b5061058f600480360381019061058a91906136ad565b610fce565b60405161059c9190613ba4565b60405180910390f35b3480156105b157600080fd5b506105ba6113eb565b6040516105c79190613d85565b60405180910390f35b3480156105dc57600080fd5b506105f760048036038101906105f291906136ad565b61182b565b6040516106049190613ea6565b60405180910390f35b61062760048036038101906106229190613ec8565b611985565b005b34801561063557600080fd5b50610650600480360381019061064b91906136ad565b611aca565b60405161065d919061368b565b60405180910390f35b34801561067257600080fd5b5061068d60048036038101906106889190613f1b565b611bdd565b60405161069a91906135f1565b60405180910390f35b3480156106af57600080fd5b506106ca60048036038101906106c59190613710565b611c71565b6040516106e09a99989796959493929190613f5b565b60405180910390f35b3480156106f557600080fd5b50610710600480360381019061070b9190613882565b612032565b60405161071d91906136f5565b60405180910390f35b34801561073257600080fd5b5061074d60048036038101906107489190613882565b61204a565b005b886000600860008373ffffffffffffffffffffffffffffffffffffffff1673ffffffffffffffffffffffffffffffffffffffff16815260200190815260200160002054116107d2576040517f08c379a00000000000000000000000000000000000000000000000000000000081526004016107c99061406d565b60405180910390fd5b6000604051806101400160405280600b5481526020018c73ffffffffffffffffffffffffffffffffffffffff1681526020018b81526020018a815260200189815260200188815260200187815260200186815260200185815260200184815250905060098190806001815401808255809150506001900390600052602060002090600a02016000909190919091506000820151816000015560208201518160010160006101000a81548173ffffffffffffffffffffffffffffffffffffffff021916908373ffffffffffffffffffffffffffffffffffffffff16021790555060408201518160020190816108c69190614299565b5060608201518160030190816108dc9190614299565b5060808201518160040190816108f29190614299565b5060a08201518160050190816109089190614299565b5060c082015181600601908161091e9190614299565b5060e08201518160070155610100820151816008015561012082015181600901908161094a9190614299565b505050600b60008154809291906109609061439a565b91905055507f4ead148447ceb798e19235148d915e58babad415826bb0f5ed15fcbab5b8fb9e8b86868b8a60405161099c9594939291906143e2565b60405180910390a15050505050505050505050565b6000634906490660e01b7bffffffffffffffffffffffffffffffffffffffffffffffffffffffff1916827bffffffffffffffffffffffffffffffffffffffffffffffffffffffff19161480610a0b5750610a0a826120d0565b5b9050919050565b606060008054610a21906140bc565b80601f0160208091040260200160405190810160405280929190818152602001828054610a4d906140bc565b8015610a9a5780601f10610a6f57610100808354040283529160200191610a9a565b820191906000526020600020905b815481529060010190602001808311610a7d57829003601f168201915b5050505050905090565b6000610aaf826121b2565b50610ab98261223a565b9050919050565b600b5481565b610ad88282610ad3612277565b61227f565b5050565b600a5481565b600073ffffffffffffffffffffffffffffffffffffffff168273ffffffffffffffffffffffffffffffffffffffff1603610b545760006040517f64a0ae92000000000000000000000000000000000000000000000000000000008152600401610b4b91906136da565b60405180910390fd5b6000610b688383610b63612277565b612291565b90508373ffffffffffffffffffffffffffffffffffffffff168173ffffffffffffffffffffffffffffffffffffffff1614610bde578382826040517f64283d7b000000000000000000000000000000000000000000000000000000008152600401610bd593929190614443565b60405180910390fd5b50505050565b600d6020528160005260406000208181548110610c0057600080fd5b9060005260206000209060020201600091509150508060000160009054906101000a900473ffffffffffffffffffffffffffffffffffffffff1690806001018054610c4a906140bc565b80601f0160208091040260200160405190810160405280929190818152602001828054610c76906140bc565b8015610cc35780601f10610c9857610100808354040283529160200191610cc3565b820191906000526020600020905b815481529060010190602001808311610ca657829003601f168201915b5050505050905082565b610ce883838360405180602001604052806000815250610fa9565b505050565b6000610cf8826121b2565b9050919050565b600060405180604001604052808473ffffffffffffffffffffffffffffffffffffffff168152602001838152509050600d600085815260200190815260200160002081908060018154018082558091505060019003906000526020600020906002020160009091909190915060008201518160000160006101000a81548173ffffffffffffffffffffffffffffffffffffffff021916908373ffffffffffffffffffffffffffffffffffffffff1602179055506020820151816001019081610dc79190614299565b5050507fe071adeefe0e1b45c31b6caec8e1f0156035d17d390e095100d1ddd7282bb7548383604051610dfb9291906137e3565b60405180910390a150505050565b60008073ffffffffffffffffffffffffffffffffffffffff168273ffffffffffffffffffffffffffffffffffffffff1603610e7c5760006040517f89c62b64000000000000000000000000000000000000000000000000000000008152600401610e7391906136da565b60405180910390fd5b600360008373ffffffffffffffffffffffffffffffffffffffff1673ffffffffffffffffffffffffffffffffffffffff168152602001908152602001600020549050919050565b610ecb6124ab565b610ed56000612532565b565b6000600760009054906101000a900473ffffffffffffffffffffffffffffffffffffffff16905090565b606060018054610f10906140bc565b80601f0160208091040260200160405190810160405280929190818152602001828054610f3c906140bc565b8015610f895780601f10610f5e57610100808354040283529160200191610f89565b820191906000526020600020905b815481529060010190602001808311610f6c57829003601f168201915b5050505050905090565b610fa5610f9e612277565b83836125f8565b5050565b610fb4848484610ae2565b610fc8610fbf612277565b85858585612767565b50505050565b610fd6613141565b60098281548110610fea57610fe961447a565b5b90600052602060002090600a020160405180610140016040529081600082015481526020016001820160009054906101000a900473ffffffffffffffffffffffffffffffffffffffff1673ffffffffffffffffffffffffffffffffffffffff1673ffffffffffffffffffffffffffffffffffffffff168152602001600282018054611074906140bc565b80601f01602080910402602001604051908101604052809291908181526020018280546110a0906140bc565b80156110ed5780601f106110c2576101008083540402835291602001916110ed565b820191906000526020600020905b8154815290600101906020018083116110d057829003601f168201915b50505050508152602001600382018054611106906140bc565b80601f0160208091040260200160405190810160405280929190818152602001828054611132906140bc565b801561117f5780601f106111545761010080835404028352916020019161117f565b820191906000526020600020905b81548152906001019060200180831161116257829003601f168201915b50505050508152602001600482018054611198906140bc565b80601f01602080910402602001604051908101604052809291908181526020018280546111c4906140bc565b80156112115780601f106111e657610100808354040283529160200191611211565b820191906000526020600020905b8154815290600101906020018083116111f457829003601f168201915b5050505050815260200160058201805461122a906140bc565b80601f0160208091040260200160405190810160405280929190818152602001828054611256906140bc565b80156112a35780601f10611278576101008083540402835291602001916112a3565b820191906000526020600020905b81548152906001019060200180831161128657829003601f168201915b505050505081526020016006820180546112bc906140bc565b80601f01602080910402602001604051908101604052809291908181526020018280546112e8906140bc565b80156113355780601f1061130a57610100808354040283529160200191611335565b820191906000526020600020905b81548152906001019060200180831161131857829003601f168201915b505050505081526020016007820154815260200160088201548152602001600982018054611362906140bc565b80601f016020809104026020016040519081016040528092919081815260200182805461138e906140bc565b80156113db5780601f106113b0576101008083540402835291602001916113db565b820191906000526020600020905b8154815290600101906020018083116113be57829003601f168201915b5050505050815250509050919050565b60606009805480602002602001604051908101604052809291908181526020016000905b8282101561182257838290600052602060002090600a020160405180610140016040529081600082015481526020016001820160009054906101000a900473ffffffffffffffffffffffffffffffffffffffff1673ffffffffffffffffffffffffffffffffffffffff1673ffffffffffffffffffffffffffffffffffffffff1681526020016002820180546114a3906140bc565b80601f01602080910402602001604051908101604052809291908181526020018280546114cf906140bc565b801561151c5780601f106114f15761010080835404028352916020019161151c565b820191906000526020600020905b8154815290600101906020018083116114ff57829003601f168201915b50505050508152602001600382018054611535906140bc565b80601f0160208091040260200160405190810160405280929190818152602001828054611561906140bc565b80156115ae5780601f10611583576101008083540402835291602001916115ae565b820191906000526020600020905b81548152906001019060200180831161159157829003601f168201915b505050505081526020016004820180546115c7906140bc565b80601f01602080910402602001604051908101604052809291908181526020018280546115f3906140bc565b80156116405780601f1061161557610100808354040283529160200191611640565b820191906000526020600020905b81548152906001019060200180831161162357829003601f168201915b50505050508152602001600582018054611659906140bc565b80601f0160208091040260200160405190810160405280929190818152602001828054611685906140bc565b80156116d25780601f106116a7576101008083540402835291602001916116d2565b820191906000526020600020905b8154815290600101906020018083116116b557829003601f168201915b505050505081526020016006820180546116eb906140bc565b80601f0160208091040260200160405190810160405280929190818152602001828054611717906140bc565b80156117645780601f1061173957610100808354040283529160200191611764565b820191906000526020600020905b81548152906001019060200180831161174757829003601f168201915b505050505081526020016007820154815260200160088201548152602001600982018054611791906140bc565b80601f01602080910402602001604051908101604052809291908181526020018280546117bd906140bc565b801561180a5780601f106117df5761010080835404028352916020019161180a565b820191906000526020600020905b8154815290600101906020018083116117ed57829003601f168201915b5050505050815250508152602001906001019061140f565b50505050905090565b6060600d6000838152602001908152602001600020805480602002602001604051908101604052809291908181526020016000905b8282101561197a57838290600052602060002090600202016040518060400160405290816000820160009054906101000a900473ffffffffffffffffffffffffffffffffffffffff1673ffffffffffffffffffffffffffffffffffffffff1673ffffffffffffffffffffffffffffffffffffffff1681526020016001820180546118e9906140bc565b80601f0160208091040260200160405190810160405280929190818152602001828054611915906140bc565b80156119625780601f1061193757610100808354040283529160200191611962565b820191906000526020600020905b81548152906001019060200180831161194557829003601f168201915b50505050508152505081526020019060010190611860565b505050509050919050565b600061199084610fce565b90506000816101000151905060008261012001519050670de0b6b3a764000082856119bb91906144a9565b6119c591906144a9565b3414611a06576040517f08c379a00000000000000000000000000000000000000000000000000000000081526004016119fd90614537565b60405180910390fd5b600083602001519050600a6000815480929190611a229061439a565b9190505550611a3386600a54612918565b8073ffffffffffffffffffffffffffffffffffffffff166108fc349081150290604051600060405180830381858888f19350505050158015611a79573d6000803e3d6000fd5b50611a86600a5483612936565b7f4c209b5fc8ad50758f13e2e1088ba56a560dff690a1c6fef26394f4c03821c4f868634604051611ab993929190614557565b60405180910390a150505050505050565b6060611ad5826121b2565b506000600660008481526020019081526020016000208054611af6906140bc565b80601f0160208091040260200160405190810160405280929190818152602001828054611b22906140bc565b8015611b6f5780601f10611b4457610100808354040283529160200191611b6f565b820191906000526020600020905b815481529060010190602001808311611b5257829003601f168201915b505050505090506000611b80612992565b90506000815103611b95578192505050611bd8565b600082511115611bca578082604051602001611bb29291906145ca565b60405160208183030381529060405292505050611bd8565b611bd3846129a9565b925050505b919050565b6000600560008473ffffffffffffffffffffffffffffffffffffffff1673ffffffffffffffffffffffffffffffffffffffff16815260200190815260200160002060008373ffffffffffffffffffffffffffffffffffffffff1673ffffffffffffffffffffffffffffffffffffffff16815260200190815260200160002060009054906101000a900460ff16905092915050565b600c6020528160005260406000208181548110611c8d57600080fd5b90600052602060002090600a0201600091509150508060000154908060010160009054906101000a900473ffffffffffffffffffffffffffffffffffffffff1690806002018054611cdd906140bc565b80601f0160208091040260200160405190810160405280929190818152602001828054611d09906140bc565b8015611d565780601f10611d2b57610100808354040283529160200191611d56565b820191906000526020600020905b815481529060010190602001808311611d3957829003601f168201915b505050505090806003018054611d6b906140bc565b80601f0160208091040260200160405190810160405280929190818152602001828054611d97906140bc565b8015611de45780601f10611db957610100808354040283529160200191611de4565b820191906000526020600020905b815481529060010190602001808311611dc757829003601f168201915b505050505090806004018054611df9906140bc565b80601f0160208091040260200160405190810160405280929190818152602001828054611e25906140bc565b8015611e725780601f10611e4757610100808354040283529160200191611e72565b820191906000526020600020905b815481529060010190602001808311611e5557829003601f168201915b505050505090806005018054611e87906140bc565b80601f0160208091040260200160405190810160405280929190818152602001828054611eb3906140bc565b8015611f005780601f10611ed557610100808354040283529160200191611f00565b820191906000526020600020905b815481529060010190602001808311611ee357829003601f168201915b505050505090806006018054611f15906140bc565b80601f0160208091040260200160405190810160405280929190818152602001828054611f41906140bc565b8015611f8e5780601f10611f6357610100808354040283529160200191611f8e565b820191906000526020600020905b815481529060010190602001808311611f7157829003601f168201915b505050505090806007015490806008015490806009018054611faf906140bc565b80601f0160208091040260200160405190810160405280929190818152602001828054611fdb906140bc565b80156120285780601f10611ffd57610100808354040283529160200191612028565b820191906000526020600020905b81548152906001019060200180831161200b57829003601f168201915b505050505090508a565b60086020528060005260406000206000915090505481565b6120526124ab565b600073ffffffffffffffffffffffffffffffffffffffff168173ffffffffffffffffffffffffffffffffffffffff16036120c45760006040517f1e4fbdf70000000000000000000000000000000000000000000000000000000081526004016120bb91906136da565b60405180910390fd5b6120cd81612532565b50565b60007f80ac58cd000000000000000000000000000000000000000000000000000000007bffffffffffffffffffffffffffffffffffffffffffffffffffffffff1916827bffffffffffffffffffffffffffffffffffffffffffffffffffffffff1916148061219b57507f5b5e139f000000000000000000000000000000000000000000000000000000007bffffffffffffffffffffffffffffffffffffffffffffffffffffffff1916827bffffffffffffffffffffffffffffffffffffffffffffffffffffffff1916145b806121ab57506121aa82612a12565b5b9050919050565b6000806121be83612a7c565b9050600073ffffffffffffffffffffffffffffffffffffffff168173ffffffffffffffffffffffffffffffffffffffff160361223157826040517f7e27328900000000000000000000000000000000000000000000000000000000815260040161222891906136f5565b60405180910390fd5b80915050919050565b60006004600083815260200190815260200160002060009054906101000a900473ffffffffffffffffffffffffffffffffffffffff169050919050565b600033905090565b61228c8383836001612ab9565b505050565b60008061229d84612a7c565b9050600073ffffffffffffffffffffffffffffffffffffffff168373ffffffffffffffffffffffffffffffffffffffff16146122df576122de818486612c7e565b5b600073ffffffffffffffffffffffffffffffffffffffff168173ffffffffffffffffffffffffffffffffffffffff161461237057612321600085600080612ab9565b6001600360008373ffffffffffffffffffffffffffffffffffffffff1673ffffffffffffffffffffffffffffffffffffffff168152602001908152602001600020600082825403925050819055505b600073ffffffffffffffffffffffffffffffffffffffff168573ffffffffffffffffffffffffffffffffffffffff16146123f3576001600360008773ffffffffffffffffffffffffffffffffffffffff1673ffffffffffffffffffffffffffffffffffffffff168152602001908152602001600020600082825401925050819055505b846002600086815260200190815260200160002060006101000a81548173ffffffffffffffffffffffffffffffffffffffff021916908373ffffffffffffffffffffffffffffffffffffffff160217905550838573ffffffffffffffffffffffffffffffffffffffff168273ffffffffffffffffffffffffffffffffffffffff167fddf252ad1be2c89b69c2b068fc378daa952ba7f163c4a11628f55a4df523b3ef60405160405180910390a4809150509392505050565b6124b3612277565b73ffffffffffffffffffffffffffffffffffffffff166124d1610ed7565b73ffffffffffffffffffffffffffffffffffffffff1614612530576124f4612277565b6040517f118cdaa700000000000000000000000000000000000000000000000000000000815260040161252791906136da565b60405180910390fd5b565b6000600760009054906101000a900473ffffffffffffffffffffffffffffffffffffffff16905081600760006101000a81548173ffffffffffffffffffffffffffffffffffffffff021916908373ffffffffffffffffffffffffffffffffffffffff1602179055508173ffffffffffffffffffffffffffffffffffffffff168173ffffffffffffffffffffffffffffffffffffffff167f8be0079c531659141344cd1fd0a4f28419497f9722a3daafe3b4186f6b6457e060405160405180910390a35050565b600073ffffffffffffffffffffffffffffffffffffffff168273ffffffffffffffffffffffffffffffffffffffff160361266957816040517f5b08ba1800000000000000000000000000000000000000000000000000000000815260040161266091906136da565b60405180910390fd5b80600560008573ffffffffffffffffffffffffffffffffffffffff1673ffffffffffffffffffffffffffffffffffffffff16815260200190815260200160002060008473ffffffffffffffffffffffffffffffffffffffff1673ffffffffffffffffffffffffffffffffffffffff16815260200190815260200160002060006101000a81548160ff0219169083151502179055508173ffffffffffffffffffffffffffffffffffffffff168373ffffffffffffffffffffffffffffffffffffffff167f17307eab39ab6107e8899845ad3d59bd9653f200f220920489ca2b5937696c318360405161275a91906135f1565b60405180910390a3505050565b60008373ffffffffffffffffffffffffffffffffffffffff163b1115612911578273ffffffffffffffffffffffffffffffffffffffff1663150b7a02868685856040518563ffffffff1660e01b81526004016127c69493929190614643565b6020604051808303816000875af192505050801561280257506040513d601f19601f820116820180604052508101906127ff91906146a4565b60015b612886573d8060008114612832576040519150601f19603f3d011682016040523d82523d6000602084013e612837565b606091505b50600081510361287e57836040517f64a0ae9200000000000000000000000000000000000000000000000000000000815260040161287591906136da565b60405180910390fd5b805181602001fd5b63150b7a0260e01b7bffffffffffffffffffffffffffffffffffffffffffffffffffffffff1916817bffffffffffffffffffffffffffffffffffffffffffffffffffffffff19161461290f57836040517f64a0ae9200000000000000000000000000000000000000000000000000000000815260040161290691906136da565b60405180910390fd5b505b5050505050565b612932828260405180602001604052806000815250612d42565b5050565b806006600084815260200190815260200160002090816129569190614299565b507ff8e1a15aba9398e019f0b49df1a4fde98ee17ae345cb5f6b5e2c27f5033e8ce78260405161298691906136f5565b60405180910390a15050565b606060405180602001604052806000815250905090565b60606129b4826121b2565b5060006129bf612992565b905060008151116129df5760405180602001604052806000815250612a0a565b806129e984612d66565b6040516020016129fa9291906145ca565b6040516020818303038152906040525b915050919050565b60007f01ffc9a7000000000000000000000000000000000000000000000000000000007bffffffffffffffffffffffffffffffffffffffffffffffffffffffff1916827bffffffffffffffffffffffffffffffffffffffffffffffffffffffff1916149050919050565b60006002600083815260200190815260200160002060009054906101000a900473ffffffffffffffffffffffffffffffffffffffff169050919050565b8080612af25750600073ffffffffffffffffffffffffffffffffffffffff168273ffffffffffffffffffffffffffffffffffffffff1614155b15612c26576000612b02846121b2565b9050600073ffffffffffffffffffffffffffffffffffffffff168373ffffffffffffffffffffffffffffffffffffffff1614158015612b6d57508273ffffffffffffffffffffffffffffffffffffffff168173ffffffffffffffffffffffffffffffffffffffff1614155b8015612b805750612b7e8184611bdd565b155b15612bc257826040517fa9fbf51f000000000000000000000000000000000000000000000000000000008152600401612bb991906136da565b60405180910390fd5b8115612c2457838573ffffffffffffffffffffffffffffffffffffffff168273ffffffffffffffffffffffffffffffffffffffff167f8c5be1e5ebec7d5bd14f71427d1e84f3dd0314c0f7b2291e5b200ac8c7c3b92560405160405180910390a45b505b836004600085815260200190815260200160002060006101000a81548173ffffffffffffffffffffffffffffffffffffffff021916908373ffffffffffffffffffffffffffffffffffffffff16021790555050505050565b612c89838383612e34565b612d3d57600073ffffffffffffffffffffffffffffffffffffffff168373ffffffffffffffffffffffffffffffffffffffff1603612cfe57806040517f7e273289000000000000000000000000000000000000000000000000000000008152600401612cf591906136f5565b60405180910390fd5b81816040517f177e802f000000000000000000000000000000000000000000000000000000008152600401612d34929190613204565b60405180910390fd5b505050565b612d4c8383612ef5565b612d61612d57612277565b6000858585612767565b505050565b606060006001612d7584612fee565b01905060008167ffffffffffffffff811115612d9457612d93613288565b5b6040519080825280601f01601f191660200182016040528015612dc65781602001600182028036833780820191505090505b509050600082602001820190505b600115612e29578080600190039150507f3031323334353637383961626364656600000000000000000000000000000000600a86061a8153600a8581612e1d57612e1c6146d1565b5b04945060008503612dd4575b819350505050919050565b60008073ffffffffffffffffffffffffffffffffffffffff168373ffffffffffffffffffffffffffffffffffffffff1614158015612eec57508273ffffffffffffffffffffffffffffffffffffffff168473ffffffffffffffffffffffffffffffffffffffff161480612ead5750612eac8484611bdd565b5b80612eeb57508273ffffffffffffffffffffffffffffffffffffffff16612ed38361223a565b73ffffffffffffffffffffffffffffffffffffffff16145b5b90509392505050565b600073ffffffffffffffffffffffffffffffffffffffff168273ffffffffffffffffffffffffffffffffffffffff1603612f675760006040517f64a0ae92000000000000000000000000000000000000000000000000000000008152600401612f5e91906136da565b60405180910390fd5b6000612f7583836000612291565b9050600073ffffffffffffffffffffffffffffffffffffffff168173ffffffffffffffffffffffffffffffffffffffff1614612fe95760006040517f73c6ac6e000000000000000000000000000000000000000000000000000000008152600401612fe091906136da565b60405180910390fd5b505050565b600080600090507a184f03e93ff9f4daa797ed6e38ed64bf6a1f010000000000000000831061304c577a184f03e93ff9f4daa797ed6e38ed64bf6a1f0100000000000000008381613042576130416146d1565b5b0492506040810190505b6d04ee2d6d415b85acef81000000008310613089576d04ee2d6d415b85acef8100000000838161307f5761307e6146d1565b5b0492506020810190505b662386f26fc1000083106130b857662386f26fc1000083816130ae576130ad6146d1565b5b0492506010810190505b6305f5e10083106130e1576305f5e10083816130d7576130d66146d1565b5b0492506008810190505b61271083106131065761271083816130fc576130fb6146d1565b5b0492506004810190505b60648310613129576064838161311f5761311e6146d1565b5b0492506002810190505b600a8310613138576001810190505b80915050919050565b60405180610140016040528060008152602001600073ffffffffffffffffffffffffffffffffffffffff16815260200160608152602001606081526020016060815260200160608152602001606081526020016000815260200160008152602001606081525090565b600073ffffffffffffffffffffffffffffffffffffffff82169050919050565b60006131d5826131aa565b9050919050565b6131e5816131ca565b82525050565b6000819050919050565b6131fe816131eb565b82525050565b600060408201905061321960008301856131dc565b61322660208301846131f5565b9392505050565b6000604051905090565b600080fd5b600080fd5b61324a816131ca565b811461325557600080fd5b50565b60008135905061326781613241565b92915050565b600080fd5b600080fd5b6000601f19601f8301169050919050565b7f4e487b7100000000000000000000000000000000000000000000000000000000600052604160045260246000fd5b6132c082613277565b810181811067ffffffffffffffff821117156132df576132de613288565b5b80604052505050565b60006132f261322d565b90506132fe82826132b7565b919050565b600067ffffffffffffffff82111561331e5761331d613288565b5b61332782613277565b9050602081019050919050565b82818337600083830152505050565b600061335661335184613303565b6132e8565b90508281526020810184848401111561337257613371613272565b5b61337d848285613334565b509392505050565b600082601f83011261339a5761339961326d565b5b81356133aa848260208601613343565b91505092915050565b6133bc816131eb565b81146133c757600080fd5b50565b6000813590506133d9816133b3565b92915050565b60008060008060008060008060006101208a8c03121561340257613401613237565b5b60006134108c828d01613258565b99505060208a013567ffffffffffffffff8111156134315761343061323c565b5b61343d8c828d01613385565b98505060408a013567ffffffffffffffff81111561345e5761345d61323c565b5b61346a8c828d01613385565b97505060608a013567ffffffffffffffff81111561348b5761348a61323c565b5b6134978c828d01613385565b96505060808a013567ffffffffffffffff8111156134b8576134b761323c565b5b6134c48c828d01613385565b95505060a08a013567ffffffffffffffff8111156134e5576134e461323c565b5b6134f18c828d01613385565b94505060c06135028c828d016133ca565b93505060e06135138c828d016133ca565b9250506101008a013567ffffffffffffffff8111156135355761353461323c565b5b6135418c828d01613385565b9150509295985092959850929598565b60007fffffffff0000000000000000000000000000000000000000000000000000000082169050919050565b61358681613551565b811461359157600080fd5b50565b6000813590506135a38161357d565b92915050565b6000602082840312156135bf576135be613237565b5b60006135cd84828501613594565b91505092915050565b60008115159050919050565b6135eb816135d6565b82525050565b600060208201905061360660008301846135e2565b92915050565b600081519050919050565b600082825260208201905092915050565b60005b8381101561364657808201518184015260208101905061362b565b60008484015250505050565b600061365d8261360c565b6136678185613617565b9350613677818560208601613628565b61368081613277565b840191505092915050565b600060208201905081810360008301526136a58184613652565b905092915050565b6000602082840312156136c3576136c2613237565b5b60006136d1848285016133ca565b91505092915050565b60006020820190506136ef60008301846131dc565b92915050565b600060208201905061370a60008301846131f5565b92915050565b6000806040838503121561372757613726613237565b5b600061373585828601613258565b9250506020613746858286016133ca565b9150509250929050565b60008060006060848603121561376957613768613237565b5b600061377786828701613258565b935050602061378886828701613258565b9250506040613799868287016133ca565b9150509250925092565b600080604083850312156137ba576137b9613237565b5b60006137c8858286016133ca565b92505060206137d9858286016133ca565b9150509250929050565b60006040820190506137f860008301856131dc565b818103602083015261380a8184613652565b90509392505050565b60008060006060848603121561382c5761382b613237565b5b600061383a868287016133ca565b935050602061384b86828701613258565b925050604084013567ffffffffffffffff81111561386c5761386b61323c565b5b61387886828701613385565b9150509250925092565b60006020828403121561389857613897613237565b5b60006138a684828501613258565b91505092915050565b6138b8816135d6565b81146138c357600080fd5b50565b6000813590506138d5816138af565b92915050565b600080604083850312156138f2576138f1613237565b5b600061390085828601613258565b9250506020613911858286016138c6565b9150509250929050565b600067ffffffffffffffff82111561393657613935613288565b5b61393f82613277565b9050602081019050919050565b600061395f61395a8461391b565b6132e8565b90508281526020810184848401111561397b5761397a613272565b5b613986848285613334565b509392505050565b600082601f8301126139a3576139a261326d565b5b81356139b384826020860161394c565b91505092915050565b600080600080608085870312156139d6576139d5613237565b5b60006139e487828801613258565b94505060206139f587828801613258565b9350506040613a06878288016133ca565b925050606085013567ffffffffffffffff811115613a2757613a2661323c565b5b613a338782880161398e565b91505092959194509250565b613a48816131eb565b82525050565b613a57816131ca565b82525050565b600082825260208201905092915050565b6000613a798261360c565b613a838185613a5d565b9350613a93818560208601613628565b613a9c81613277565b840191505092915050565b600061014083016000830151613ac06000860182613a3f565b506020830151613ad36020860182613a4e565b5060408301518482036040860152613aeb8282613a6e565b91505060608301518482036060860152613b058282613a6e565b91505060808301518482036080860152613b1f8282613a6e565b91505060a083015184820360a0860152613b398282613a6e565b91505060c083015184820360c0860152613b538282613a6e565b91505060e0830151613b6860e0860182613a3f565b50610100830151613b7d610100860182613a3f565b50610120830151848203610120860152613b978282613a6e565b9150508091505092915050565b60006020820190508181036000830152613bbe8184613aa7565b905092915050565b600081519050919050565b600082825260208201905092915050565b6000819050602082019050919050565b600061014083016000830151613c0b6000860182613a3f565b506020830151613c1e6020860182613a4e565b5060408301518482036040860152613c368282613a6e565b91505060608301518482036060860152613c508282613a6e565b91505060808301518482036080860152613c6a8282613a6e565b91505060a083015184820360a0860152613c848282613a6e565b91505060c083015184820360c0860152613c9e8282613a6e565b91505060e0830151613cb360e0860182613a3f565b50610100830151613cc8610100860182613a3f565b50610120830151848203610120860152613ce28282613a6e565b9150508091505092915050565b6000613cfb8383613bf2565b905092915050565b6000602082019050919050565b6000613d1b82613bc6565b613d258185613bd1565b935083602082028501613d3785613be2565b8060005b85811015613d735784840389528151613d548582613cef565b9450613d5f83613d03565b925060208a01995050600181019050613d3b565b50829750879550505050505092915050565b60006020820190508181036000830152613d9f8184613d10565b905092915050565b600081519050919050565b600082825260208201905092915050565b6000819050602082019050919050565b6000604083016000830151613deb6000860182613a4e565b5060208301518482036020860152613e038282613a6e565b9150508091505092915050565b6000613e1c8383613dd3565b905092915050565b6000602082019050919050565b6000613e3c82613da7565b613e468185613db2565b935083602082028501613e5885613dc3565b8060005b85811015613e945784840389528151613e758582613e10565b9450613e8083613e24565b925060208a01995050600181019050613e5c565b50829750879550505050505092915050565b60006020820190508181036000830152613ec08184613e31565b905092915050565b600080600060608486031215613ee157613ee0613237565b5b6000613eef868287016133ca565b9350506020613f0086828701613258565b9250506040613f11868287016133ca565b9150509250925092565b60008060408385031215613f3257613f31613237565b5b6000613f4085828601613258565b9250506020613f5185828601613258565b9150509250929050565b600061014082019050613f71600083018d6131f5565b613f7e602083018c6131dc565b8181036040830152613f90818b613652565b90508181036060830152613fa4818a613652565b90508181036080830152613fb88189613652565b905081810360a0830152613fcc8188613652565b905081810360c0830152613fe08187613652565b9050613fef60e08301866131f5565b613ffd6101008301856131f5565b8181036101208301526140108184613652565b90509b9a5050505050505050505050565b7f5573657220686173206e6f7420796574207374616b6564204554482e00000000600082015250565b6000614057601c83613617565b915061406282614021565b602082019050919050565b600060208201905081810360008301526140868161404a565b9050919050565b7f4e487b7100000000000000000000000000000000000000000000000000000000600052602260045260246000fd5b600060028204905060018216806140d457607f821691505b6020821081036140e7576140e661408d565b5b50919050565b60008190508160005260206000209050919050565b60006020601f8301049050919050565b600082821b905092915050565b60006008830261414f7fffffffffffffffffffffffffffffffffffffffffffffffffffffffffffffffff82614112565b6141598683614112565b95508019841693508086168417925050509392505050565b6000819050919050565b600061419661419161418c846131eb565b614171565b6131eb565b9050919050565b6000819050919050565b6141b08361417b565b6141c46141bc8261419d565b84845461411f565b825550505050565b600090565b6141d96141cc565b6141e48184846141a7565b505050565b5b81811015614208576141fd6000826141d1565b6001810190506141ea565b5050565b601f82111561424d5761421e816140ed565b61422784614102565b81016020851015614236578190505b61424a61424285614102565b8301826141e9565b50505b505050565b600082821c905092915050565b600061427060001984600802614252565b1980831691505092915050565b6000614289838361425f565b9150826002028217905092915050565b6142a28261360c565b67ffffffffffffffff8111156142bb576142ba613288565b5b6142c582546140bc565b6142d082828561420c565b600060209050601f83116001811461430357600084156142f1578287015190505b6142fb858261427d565b865550614363565b601f198416614311866140ed565b60005b8281101561433957848901518255600182019150602085019450602081019050614314565b868310156143565784890151614352601f89168261425f565b8355505b6001600288020188555050505b505050505050565b7f4e487b7100000000000000000000000000000000000000000000000000000000600052601160045260246000fd5b60006143a5826131eb565b91507fffffffffffffffffffffffffffffffffffffffffffffffffffffffffffffffff82036143d7576143d661436b565b5b600182019050919050565b600060a0820190506143f760008301886131dc565b61440460208301876131f5565b61441160408301866131f5565b81810360608301526144238185613652565b905081810360808301526144378184613652565b90509695505050505050565b600060608201905061445860008301866131dc565b61446560208301856131f5565b61447260408301846131dc565b949350505050565b7f4e487b7100000000000000000000000000000000000000000000000000000000600052603260045260246000fd5b60006144b4826131eb565b91506144bf836131eb565b92508282026144cd816131eb565b915082820484148315176144e4576144e361436b565b5b5092915050565b7f506c6561736520656e7465722074686520636f727265637420616d6f756e7400600082015250565b6000614521601f83613617565b915061452c826144eb565b602082019050919050565b6000602082019050818103600083015261455081614514565b9050919050565b600060608201905061456c60008301866131dc565b61457960208301856131f5565b61458660408301846131f5565b949350505050565b600081905092915050565b60006145a48261360c565b6145ae818561458e565b93506145be818560208601613628565b80840191505092915050565b60006145d68285614599565b91506145e28284614599565b91508190509392505050565b600081519050919050565b600082825260208201905092915050565b6000614615826145ee565b61461f81856145f9565b935061462f818560208601613628565b61463881613277565b840191505092915050565b600060808201905061465860008301876131dc565b61466560208301866131dc565b61467260408301856131f5565b8181036060830152614684818461460a565b905095945050505050565b60008151905061469e8161357d565b92915050565b6000602082840312156146ba576146b9613237565b5b60006146c88482850161468f565b91505092915050565b7f4e487b7100000000000000000000000000000000000000000000000000000000600052601260045260246000fdfea264697066735822122015626fbe9abe2dd78acd7ffe199dd3a93cb1eb3c4c627602d60d9e85357227bf64736f6c634300081c0033",
    "linkReferences": {},
    "deployedLinkReferences": {}
}